{
  "_format": "hh-sol-artifact-1",
  "contractName": "PotOfGold",
  "sourceName": "contracts/PotOfGold.sol",
  "abi": [
    {
      "inputs": [
        {
          "internalType": "address",
          "name": "_usdcToken",
          "type": "address"
        },
        {
          "internalType": "address",
          "name": "_vrfCoordinator",
          "type": "address"
        },
        {
          "internalType": "uint256",
          "name": "_subscriptionId",
          "type": "uint256"
        },
        {
          "internalType": "bytes32",
          "name": "_keyHash",
          "type": "bytes32"
        }
      ],
      "stateMutability": "nonpayable",
      "type": "constructor"
    },
    {
      "inputs": [
        {
          "internalType": "address",
          "name": "have",
          "type": "address"
        },
        {
          "internalType": "address",
          "name": "want",
          "type": "address"
        }
      ],
      "name": "OnlyCoordinatorCanFulfill",
      "type": "error"
    },
    {
      "inputs": [
        {
          "internalType": "address",
          "name": "have",
          "type": "address"
        },
        {
          "internalType": "address",
          "name": "owner",
          "type": "address"
        },
        {
          "internalType": "address",
          "name": "coordinator",
          "type": "address"
        }
      ],
      "name": "OnlyOwnerOrCoordinator",
      "type": "error"
    },
    {
      "inputs": [],
      "name": "ReentrancyGuardReentrantCall",
      "type": "error"
    },
    {
      "inputs": [],
      "name": "ZeroAddress",
      "type": "error"
    },
    {
      "anonymous": false,
      "inputs": [
        {
          "indexed": false,
          "internalType": "address",
          "name": "vrfCoordinator",
          "type": "address"
        }
      ],
      "name": "CoordinatorSet",
      "type": "event"
    },
    {
      "anonymous": false,
      "inputs": [
        {
          "indexed": false,
          "internalType": "uint256",
          "name": "amount",
          "type": "uint256"
        }
      ],
      "name": "MegaPotIncreased",
      "type": "event"
    },
    {
      "anonymous": false,
      "inputs": [
        {
          "indexed": true,
          "internalType": "address",
          "name": "winner",
          "type": "address"
        },
        {
          "indexed": false,
          "internalType": "uint256",
          "name": "amountWon",
          "type": "uint256"
        }
      ],
      "name": "MegaPotWinnerSelected",
      "type": "event"
    },
    {
      "anonymous": false,
      "inputs": [
        {
          "indexed": true,
          "internalType": "address",
          "name": "from",
          "type": "address"
        },
        {
          "indexed": true,
          "internalType": "address",
          "name": "to",
          "type": "address"
        }
      ],
      "name": "OwnershipTransferRequested",
      "type": "event"
    },
    {
      "anonymous": false,
      "inputs": [
        {
          "indexed": true,
          "internalType": "address",
          "name": "from",
          "type": "address"
        },
        {
          "indexed": true,
          "internalType": "address",
          "name": "to",
          "type": "address"
        }
      ],
      "name": "OwnershipTransferred",
      "type": "event"
    },
    {
      "anonymous": false,
      "inputs": [
        {
          "indexed": true,
          "internalType": "address",
          "name": "player",
          "type": "address"
        },
        {
          "indexed": false,
          "internalType": "uint256",
          "name": "fee",
          "type": "uint256"
        }
      ],
      "name": "PlayerEntered",
      "type": "event"
    },
    {
      "anonymous": false,
      "inputs": [
        {
          "indexed": true,
          "internalType": "address",
          "name": "player",
          "type": "address"
        },
        {
          "indexed": false,
          "internalType": "uint256",
          "name": "amount",
          "type": "uint256"
        }
      ],
      "name": "RefundIssued",
      "type": "event"
    },
    {
      "anonymous": false,
      "inputs": [
        {
          "indexed": true,
          "internalType": "address",
          "name": "winner",
          "type": "address"
        },
        {
          "indexed": false,
          "internalType": "uint256",
          "name": "amountWon",
          "type": "uint256"
        }
      ],
      "name": "WinnerSelected",
      "type": "event"
    },
    {
      "inputs": [],
      "name": "DISCOUNTED_FEE",
      "outputs": [
        {
          "internalType": "uint256",
          "name": "",
          "type": "uint256"
        }
      ],
      "stateMutability": "view",
      "type": "function"
    },
    {
      "inputs": [],
      "name": "ENTRY_FEE",
      "outputs": [
        {
          "internalType": "uint256",
          "name": "",
          "type": "uint256"
        }
      ],
      "stateMutability": "view",
      "type": "function"
    },
    {
      "inputs": [],
      "name": "MAX_PLAYERS",
      "outputs": [
        {
          "internalType": "uint256",
          "name": "",
          "type": "uint256"
        }
      ],
      "stateMutability": "view",
      "type": "function"
    },
    {
      "inputs": [],
      "name": "acceptOwnership",
      "outputs": [],
      "stateMutability": "nonpayable",
      "type": "function"
    },
    {
      "inputs": [],
      "name": "callbackGasLimit",
      "outputs": [
        {
          "internalType": "uint32",
          "name": "",
          "type": "uint32"
        }
      ],
      "stateMutability": "view",
      "type": "function"
    },
    {
      "inputs": [
        {
          "internalType": "bytes",
          "name": "",
          "type": "bytes"
        }
      ],
      "name": "checkUpkeep",
      "outputs": [
        {
          "internalType": "bool",
          "name": "upkeepNeeded",
          "type": "bool"
        },
        {
          "internalType": "bytes",
          "name": "",
          "type": "bytes"
        }
      ],
      "stateMutability": "view",
      "type": "function"
    },
    {
      "inputs": [
        {
          "internalType": "address",
          "name": "",
          "type": "address"
        }
      ],
      "name": "consecutiveLosses",
      "outputs": [
        {
          "internalType": "uint256",
          "name": "",
          "type": "uint256"
        }
      ],
      "stateMutability": "view",
      "type": "function"
    },
    {
      "inputs": [
        {
          "internalType": "address",
          "name": "",
          "type": "address"
        }
      ],
      "name": "deposits",
      "outputs": [
        {
          "internalType": "uint256",
          "name": "",
          "type": "uint256"
        }
      ],
      "stateMutability": "view",
      "type": "function"
    },
    {
      "inputs": [],
      "name": "enter",
      "outputs": [],
      "stateMutability": "nonpayable",
      "type": "function"
    },
    {
      "inputs": [],
      "name": "keyHash",
      "outputs": [
        {
          "internalType": "bytes32",
          "name": "",
          "type": "bytes32"
        }
      ],
      "stateMutability": "view",
      "type": "function"
    },
    {
      "inputs": [],
      "name": "lastGameStart",
      "outputs": [
        {
          "internalType": "uint256",
          "name": "",
          "type": "uint256"
        }
      ],
      "stateMutability": "view",
      "type": "function"
    },
    {
      "inputs": [],
      "name": "lastMegaPotDraw",
      "outputs": [
        {
          "internalType": "uint256",
          "name": "",
          "type": "uint256"
        }
      ],
      "stateMutability": "view",
      "type": "function"
    },
    {
      "inputs": [],
      "name": "megaPotBalance",
      "outputs": [
        {
          "internalType": "uint256",
          "name": "",
          "type": "uint256"
        }
      ],
      "stateMutability": "view",
      "type": "function"
    },
    {
      "inputs": [
        {
          "internalType": "uint256",
          "name": "",
          "type": "uint256"
        }
      ],
      "name": "megaPotEntries",
      "outputs": [
        {
          "internalType": "address",
          "name": "",
          "type": "address"
        }
      ],
      "stateMutability": "view",
      "type": "function"
    },
    {
      "inputs": [],
      "name": "megaPotRound",
      "outputs": [
        {
          "internalType": "uint256",
          "name": "",
          "type": "uint256"
        }
      ],
      "stateMutability": "view",
      "type": "function"
    },
    {
      "inputs": [],
      "name": "numWords",
      "outputs": [
        {
          "internalType": "uint32",
          "name": "",
          "type": "uint32"
        }
      ],
      "stateMutability": "view",
      "type": "function"
    },
    {
      "inputs": [],
      "name": "owner",
      "outputs": [
        {
          "internalType": "address",
          "name": "",
          "type": "address"
        }
      ],
      "stateMutability": "view",
      "type": "function"
    },
    {
      "inputs": [
        {
          "internalType": "bytes",
          "name": "",
          "type": "bytes"
        }
      ],
      "name": "performUpkeep",
      "outputs": [],
      "stateMutability": "nonpayable",
      "type": "function"
    },
    {
      "inputs": [
        {
          "internalType": "uint256",
          "name": "",
          "type": "uint256"
        }
      ],
      "name": "players",
      "outputs": [
        {
          "internalType": "address",
          "name": "",
          "type": "address"
        }
      ],
      "stateMutability": "view",
      "type": "function"
    },
    {
      "inputs": [
        {
          "internalType": "uint256",
          "name": "requestId",
          "type": "uint256"
        },
        {
          "internalType": "uint256[]",
          "name": "randomWords",
          "type": "uint256[]"
        }
      ],
      "name": "rawFulfillRandomWords",
      "outputs": [],
      "stateMutability": "nonpayable",
      "type": "function"
    },
    {
      "inputs": [],
      "name": "refund",
      "outputs": [],
      "stateMutability": "nonpayable",
      "type": "function"
    },
    {
      "inputs": [],
      "name": "requestConfirmations",
      "outputs": [
        {
          "internalType": "uint16",
          "name": "",
          "type": "uint16"
        }
      ],
      "stateMutability": "view",
      "type": "function"
    },
    {
      "inputs": [
        {
          "internalType": "uint256",
          "name": "",
          "type": "uint256"
        }
      ],
      "name": "s_requests",
      "outputs": [
        {
          "internalType": "enum PotOfGold.RequestType",
          "name": "",
          "type": "uint8"
        }
      ],
      "stateMutability": "view",
      "type": "function"
    },
    {
      "inputs": [],
      "name": "s_subscriptionId",
      "outputs": [
        {
          "internalType": "uint256",
          "name": "",
          "type": "uint256"
        }
      ],
      "stateMutability": "view",
      "type": "function"
    },
    {
      "inputs": [],
      "name": "s_vrfCoordinator",
      "outputs": [
        {
          "internalType": "contract IVRFCoordinatorV2Plus",
          "name": "",
          "type": "address"
        }
      ],
      "stateMutability": "view",
      "type": "function"
    },
    {
      "inputs": [
        {
          "internalType": "address",
          "name": "_vrfCoordinator",
          "type": "address"
        }
      ],
      "name": "setCoordinator",
      "outputs": [],
      "stateMutability": "nonpayable",
      "type": "function"
    },
    {
      "inputs": [
        {
          "internalType": "bytes32",
          "name": "_keyHash",
          "type": "bytes32"
        }
      ],
      "name": "setKeyHash",
      "outputs": [],
      "stateMutability": "nonpayable",
      "type": "function"
    },
    {
      "inputs": [
        {
          "internalType": "uint256",
          "name": "_subscriptionId",
          "type": "uint256"
        }
      ],
      "name": "setSubscriptionId",
      "outputs": [],
      "stateMutability": "nonpayable",
      "type": "function"
    },
    {
      "inputs": [
        {
          "internalType": "uint256",
          "name": "",
          "type": "uint256"
        },
        {
          "internalType": "address",
          "name": "",
          "type": "address"
        }
      ],
      "name": "tickets",
      "outputs": [
        {
          "internalType": "uint256",
          "name": "",
          "type": "uint256"
        }
      ],
      "stateMutability": "view",
      "type": "function"
    },
    {
      "inputs": [
        {
          "internalType": "address",
          "name": "to",
          "type": "address"
        }
      ],
      "name": "transferOwnership",
      "outputs": [],
      "stateMutability": "nonpayable",
      "type": "function"
    },
    {
      "inputs": [],
      "name": "usdcToken",
      "outputs": [
        {
          "internalType": "contract IERC20",
          "name": "",
          "type": "address"
        }
      ],
      "stateMutability": "view",
      "type": "function"
    }
  ],
  "bytecode": "0x6080604052620186a0600c60006101000a81548163ffffffff021916908363ffffffff1602179055506003600c60046101000a81548161ffff021916908361ffff1602179055506001600c60066101000a81548163ffffffff021916908363ffffffff1602179055503480156200007557600080fd5b506040516200347b3803806200347b83398181016040528101906200009b9190620004c2565b82338060008073ffffffffffffffffffffffffffffffffffffffff168273ffffffffffffffffffffffffffffffffffffffff160362000111576040517f08c379a0000000000000000000000000000000000000000000000000000000008152600401620001089062000595565b60405180910390fd5b816000806101000a81548173ffffffffffffffffffffffffffffffffffffffff021916908373ffffffffffffffffffffffffffffffffffffffff160217905550600073ffffffffffffffffffffffffffffffffffffffff168173ffffffffffffffffffffffffffffffffffffffff161462000198576200019781620002b360201b60201c565b5b505050600073ffffffffffffffffffffffffffffffffffffffff168173ffffffffffffffffffffffffffffffffffffffff160362000202576040517fd92e233d00000000000000000000000000000000000000000000000000000000815260040160405180910390fd5b80600260006101000a81548173ffffffffffffffffffffffffffffffffffffffff021916908373ffffffffffffffffffffffffffffffffffffffff16021790555050600160038190555083600460006101000a81548173ffffffffffffffffffffffffffffffffffffffff021916908373ffffffffffffffffffffffffffffffffffffffff16021790555081600a8190555080600b819055504260098190555042600e819055505050505062000629565b3373ffffffffffffffffffffffffffffffffffffffff168173ffffffffffffffffffffffffffffffffffffffff160362000324576040517f08c379a00000000000000000000000000000000000000000000000000000000081526004016200031b9062000607565b60405180910390fd5b80600160006101000a81548173ffffffffffffffffffffffffffffffffffffffff021916908373ffffffffffffffffffffffffffffffffffffffff1602179055508073ffffffffffffffffffffffffffffffffffffffff1660008054906101000a900473ffffffffffffffffffffffffffffffffffffffff1673ffffffffffffffffffffffffffffffffffffffff167fed8889f560326eb138920d842192f0eb3dd22b4f139c87a2c57538e05bae127860405160405180910390a350565b600080fd5b600073ffffffffffffffffffffffffffffffffffffffff82169050919050565b60006200041482620003e7565b9050919050565b620004268162000407565b81146200043257600080fd5b50565b60008151905062000446816200041b565b92915050565b6000819050919050565b62000461816200044c565b81146200046d57600080fd5b50565b600081519050620004818162000456565b92915050565b6000819050919050565b6200049c8162000487565b8114620004a857600080fd5b50565b600081519050620004bc8162000491565b92915050565b60008060008060808587031215620004df57620004de620003e2565b5b6000620004ef8782880162000435565b9450506020620005028782880162000435565b9350506040620005158782880162000470565b92505060606200052887828801620004ab565b91505092959194509250565b600082825260208201905092915050565b7f43616e6e6f7420736574206f776e657220746f207a65726f0000000000000000600082015250565b60006200057d60188362000534565b91506200058a8262000545565b602082019050919050565b60006020820190508181036000830152620005b0816200056e565b9050919050565b7f43616e6e6f74207472616e7366657220746f2073656c66000000000000000000600082015250565b6000620005ef60178362000534565b9150620005fc82620005b7565b602082019050919050565b600060208201905081810360008301526200062281620005e0565b9050919050565b612e4280620006396000396000f3fe608060405234801561001057600080fd5b50600436106101e55760003560e01c80638da5cb5b1161010f578063d8b3cb2a116100a2578063f2fde38b11610071578063f2fde38b14610529578063f6d361cc14610545578063f71d96cb14610563578063fc7e286d14610593576101e5565b8063d8b3cb2a146104b3578063e64b5faa146104e3578063e97dcb6214610501578063eceb6cb71461050b576101e5565b8063a168fa89116100de578063a168fa8914610419578063b0fb162f14610449578063b99d6e2914610467578063c1e0d23614610497576101e5565b80638da5cb5b146103a55780638ea98117146103c357806398544710146103df5780639eccacf6146103fb576101e5565b80634c027116116101875780636e04ff0d116101565780636e04ff0d1461032e57806379ba50971461035f5780637ccfd7fc146103695780638ac0002114610387576101e5565b80634c027116146102b857806352af6620146102e8578063590e1ae31461030657806361728f3914610310576101e5565b806324f74697116101c357806324f74697146102425780632ca12254146102605780634411b3eb1461027e5780634585e33b1461029c576101e5565b806311eac855146101ea5780631b0c34eb146102085780631fe543e314610226575b600080fd5b6101f26105c3565b6040516101ff9190611f14565b60405180910390f35b6102106105e9565b60405161021d9190611f48565b60405180910390f35b610240600480360381019061023b9190611ffe565b6105ef565b005b61024a6106b5565b604051610257919061207d565b60405180910390f35b6102686106cb565b6040516102759190611f48565b60405180910390f35b6102866106d1565b6040516102939190611f48565b60405180910390f35b6102b660048036038101906102b191906120ee565b6106d6565b005b6102d260048036038101906102cd919061213b565b61070e565b6040516102df9190612189565b60405180910390f35b6102f061074d565b6040516102fd9190611f48565b60405180910390f35b61030e610754565b005b610318610a80565b60405161032591906121bd565b60405180910390f35b610348600480360381019061034391906120ee565b610a86565b604051610356929190612283565b60405180910390f35b610367610ab7565b005b610371610c4c565b60405161037e919061207d565b60405180910390f35b61038f610c62565b60405161039c9190611f48565b60405180910390f35b6103ad610c68565b6040516103ba9190612189565b60405180910390f35b6103dd60048036038101906103d891906122df565b610c91565b005b6103f960048036038101906103f49190612338565b610e72565b005b610403610e84565b6040516104109190612386565b60405180910390f35b610433600480360381019061042e919061213b565b610eaa565b6040516104409190612418565b60405180910390f35b610451610eca565b60405161045e9190612450565b60405180910390f35b610481600480360381019061047c919061246b565b610ede565b60405161048e9190611f48565b60405180910390f35b6104b160048036038101906104ac919061213b565b610f03565b005b6104cd60048036038101906104c891906122df565b610f15565b6040516104da9190611f48565b60405180910390f35b6104eb610f2d565b6040516104f89190611f48565b60405180910390f35b610509610f33565b005b6105136112b7565b6040516105209190611f48565b60405180910390f35b610543600480360381019061053e91906122df565b6112bd565b005b61054d6112d1565b60405161055a9190611f48565b60405180910390f35b61057d6004803603810190610578919061213b565b6112d8565b60405161058a9190612189565b60405180910390f35b6105ad60048036038101906105a891906122df565b611317565b6040516105ba9190611f48565b60405180910390f35b600460009054906101000a900473ffffffffffffffffffffffffffffffffffffffff1681565b600e5481565b600260009054906101000a900473ffffffffffffffffffffffffffffffffffffffff1673ffffffffffffffffffffffffffffffffffffffff163373ffffffffffffffffffffffffffffffffffffffff16146106a55733600260009054906101000a900473ffffffffffffffffffffffffffffffffffffffff166040517f1cf993f400000000000000000000000000000000000000000000000000000000815260040161069c9291906124ab565b60405180910390fd5b6106b083838361132f565b505050565b600c60009054906101000a900463ffffffff1681565b60055481565b600681565b62093a80600e54426106e89190612503565b1180156106fa57506000600f80549050115b1561070a576107096001611a45565b5b5050565b600f818154811061071e57600080fd5b906000526020600020016000915054906101000a900473ffffffffffffffffffffffffffffffffffffffff1681565b6207a12081565b61075c611bb3565b6201518060095461076d9190612537565b42116107ae576040517f08c379a00000000000000000000000000000000000000000000000000000000081526004016107a5906125c8565b60405180910390fd5b6006600780549050106107f6576040517f08c379a00000000000000000000000000000000000000000000000000000000081526004016107ed90612634565b60405180910390fd5b60006007805490501161083e576040517f08c379a0000000000000000000000000000000000000000000000000000000008152600401610835906126a0565b60405180910390fd5b60005b600780549050811015610a6057600060078281548110610864576108636126c0565b5b9060005260206000200160009054906101000a900473ffffffffffffffffffffffffffffffffffffffff1690506000600860008373ffffffffffffffffffffffffffffffffffffffff1673ffffffffffffffffffffffffffffffffffffffff1681526020019081526020016000205490506000811115610a51576000600860008473ffffffffffffffffffffffffffffffffffffffff1673ffffffffffffffffffffffffffffffffffffffff16815260200190815260200160002081905550600460009054906101000a900473ffffffffffffffffffffffffffffffffffffffff1673ffffffffffffffffffffffffffffffffffffffff1663a9059cbb83836040518363ffffffff1660e01b81526004016109809291906126ef565b6020604051808303816000875af115801561099f573d6000803e3d6000fd5b505050506040513d601f19601f820116820180604052508101906109c39190612744565b610a02576040517f08c379a00000000000000000000000000000000000000000000000000000000081526004016109f9906127bd565b60405180910390fd5b8173ffffffffffffffffffffffffffffffffffffffff167fa171b6942063c6f2800ce40a780edce37baa2b618571b11eedd1e69e626e7d7682604051610a489190611f48565b60405180910390a25b50508080600101915050610841565b5060076000610a6f9190611e57565b42600981905550610a7e611bf9565b565b600b5481565b6000606062093a80600e5442610a9c9190612503565b118015610aae57506000600f80549050115b91509250929050565b600160009054906101000a900473ffffffffffffffffffffffffffffffffffffffff1673ffffffffffffffffffffffffffffffffffffffff163373ffffffffffffffffffffffffffffffffffffffff1614610b47576040517f08c379a0000000000000000000000000000000000000000000000000000000008152600401610b3e90612829565b60405180910390fd5b60008060009054906101000a900473ffffffffffffffffffffffffffffffffffffffff169050336000806101000a81548173ffffffffffffffffffffffffffffffffffffffff021916908373ffffffffffffffffffffffffffffffffffffffff1602179055506000600160006101000a81548173ffffffffffffffffffffffffffffffffffffffff021916908373ffffffffffffffffffffffffffffffffffffffff1602179055503373ffffffffffffffffffffffffffffffffffffffff168173ffffffffffffffffffffffffffffffffffffffff167f8be0079c531659141344cd1fd0a4f28419497f9722a3daafe3b4186f6b6457e060405160405180910390a350565b600c60069054906101000a900463ffffffff1681565b600a5481565b60008060009054906101000a900473ffffffffffffffffffffffffffffffffffffffff16905090565b610c99610c68565b73ffffffffffffffffffffffffffffffffffffffff163373ffffffffffffffffffffffffffffffffffffffff1614158015610d225750600260009054906101000a900473ffffffffffffffffffffffffffffffffffffffff1673ffffffffffffffffffffffffffffffffffffffff163373ffffffffffffffffffffffffffffffffffffffff1614155b15610d915733610d30610c68565b600260009054906101000a900473ffffffffffffffffffffffffffffffffffffffff166040517f061db9c1000000000000000000000000000000000000000000000000000000008152600401610d8893929190612849565b60405180910390fd5b600073ffffffffffffffffffffffffffffffffffffffff168173ffffffffffffffffffffffffffffffffffffffff1603610df7576040517fd92e233d00000000000000000000000000000000000000000000000000000000815260040160405180910390fd5b80600260006101000a81548173ffffffffffffffffffffffffffffffffffffffff021916908373ffffffffffffffffffffffffffffffffffffffff1602179055507fd1a6a14209a385a964d036e404cb5cfb71f4000cdb03c9366292430787261be681604051610e679190612189565b60405180910390a150565b610e7a611c03565b80600b8190555050565b600260009054906101000a900473ffffffffffffffffffffffffffffffffffffffff1681565b60116020528060005260406000206000915054906101000a900460ff1681565b600c60049054906101000a900461ffff1681565b6010602052816000526040600020602052806000526040600020600091509150505481565b610f0b611c03565b80600a8190555050565b60066020528060005260406000206000915090505481565b600d5481565b610f3b611bb3565b600660078054905010610f83576040517f08c379a0000000000000000000000000000000000000000000000000000000008152600401610f7a906128cc565b60405180910390fd5b6000620f424090506005600660003373ffffffffffffffffffffffffffffffffffffffff1673ffffffffffffffffffffffffffffffffffffffff1681526020019081526020016000205410610fd9576207a12090505b600460009054906101000a900473ffffffffffffffffffffffffffffffffffffffff1673ffffffffffffffffffffffffffffffffffffffff166323b872dd3330846040518463ffffffff1660e01b8152600401611038939291906128ec565b6020604051808303816000875af1158015611057573d6000803e3d6000fd5b505050506040513d601f19601f8201168201806040525081019061107b9190612744565b6110ba576040517f08c379a00000000000000000000000000000000000000000000000000000000081526004016110b19061296f565b60405180910390fd5b6007339080600181540180825580915050600190039060005260206000200160009091909190916101000a81548173ffffffffffffffffffffffffffffffffffffffff021916908373ffffffffffffffffffffffffffffffffffffffff16021790555080600860003373ffffffffffffffffffffffffffffffffffffffff1673ffffffffffffffffffffffffffffffffffffffff1681526020019081526020016000208190555060106000600d54815260200190815260200160002060003373ffffffffffffffffffffffffffffffffffffffff1673ffffffffffffffffffffffffffffffffffffffff16815260200190815260200160002060008154809291906111c49061298f565b9190505550600f339080600181540180825580915050600190039060005260206000200160009091909190916101000a81548173ffffffffffffffffffffffffffffffffffffffff021916908373ffffffffffffffffffffffffffffffffffffffff1602179055503373ffffffffffffffffffffffffffffffffffffffff167fc16481c9484122696a660b57df0bf6839645c6b620cb1704ac2437de13be9225826040516112729190611f48565b60405180910390a2600660078054905003611296576112916000611a45565b6112ac565b6001600780549050036112ab57426009819055505b5b506112b5611bf9565b565b60095481565b6112c5611c03565b6112ce81611c93565b50565b620f424081565b600781815481106112e857600080fd5b906000526020600020016000915054906101000a900473ffffffffffffffffffffffffffffffffffffffff1681565b60086020528060005260406000206000915090505481565b60006011600085815260200190815260200160002060009054906101000a900460ff16905060006001811115611368576113676123a1565b5b81600181111561137b5761137a6123a1565b5b0361180f576006600780549050146113935750611a40565b60006006848460008181106113ab576113aa6126c0565b5b905060200201356113bc9190612a06565b90506000600782815481106113d4576113d36126c0565b5b9060005260206000200160009054906101000a900473ffffffffffffffffffffffffffffffffffffffff1690506000624c4b40905060006207a120905060006207a1209050806005600082825461142b9190612537565b925050819055507fce66e2e2bb72d2a0db8a270b3e3f739b2925a20b2a3c6b14e8ae079a734404b1816040516114619190611f48565b60405180910390a1600460009054906101000a900473ffffffffffffffffffffffffffffffffffffffff1673ffffffffffffffffffffffffffffffffffffffff1663a9059cbb85856040518363ffffffff1660e01b81526004016114c69291906126ef565b6020604051808303816000875af11580156114e5573d6000803e3d6000fd5b505050506040513d601f19601f820116820180604052508101906115099190612744565b611548576040517f08c379a000000000000000000000000000000000000000000000000000000000815260040161153f90612a83565b60405180910390fd5b600460009054906101000a900473ffffffffffffffffffffffffffffffffffffffff1673ffffffffffffffffffffffffffffffffffffffff1663a9059cbb61158e610c68565b846040518363ffffffff1660e01b81526004016115ac9291906126ef565b6020604051808303816000875af11580156115cb573d6000803e3d6000fd5b505050506040513d601f19601f820116820180604052508101906115ef9190612744565b61162e576040517f08c379a000000000000000000000000000000000000000000000000000000000815260040161162590612aef565b60405180910390fd5b60005b60068110156117a1576000600782815481106116505761164f6126c0565b5b9060005260206000200160009054906101000a900473ffffffffffffffffffffffffffffffffffffffff1690508573ffffffffffffffffffffffffffffffffffffffff168173ffffffffffffffffffffffffffffffffffffffff16036116fa576000600660008373ffffffffffffffffffffffffffffffffffffffff1673ffffffffffffffffffffffffffffffffffffffff16815260200190815260200160002081905550611750565b600660008273ffffffffffffffffffffffffffffffffffffffff1673ffffffffffffffffffffffffffffffffffffffff168152602001908152602001600020600081548092919061174a9061298f565b91905055505b600860008273ffffffffffffffffffffffffffffffffffffffff1673ffffffffffffffffffffffffffffffffffffffff16815260200190815260200160002060009055508080600101915050611631565b508373ffffffffffffffffffffffffffffffffffffffff167f75060f9e79552df167b73353fee6237a75bb5ba8ea022f77224e32f152138bcb846040516117e89190611f48565b60405180910390a2600760006117fe9190611e57565b426009819055505050505050611a3e565b600180811115611822576118216123a1565b5b816001811115611835576118346123a1565b5b03611a3d576000600f80549050036118545742600e8190555050611a40565b6000600f80549050848460008181106118705761186f6126c0565b5b905060200201356118819190612a06565b90506000600f8281548110611899576118986126c0565b5b9060005260206000200160009054906101000a900473ffffffffffffffffffffffffffffffffffffffff169050600060055490506000600581905550600f60006118e39190611e57565b600d60008154809291906118f69061298f565b919050555042600e819055506000811115611a3957600460009054906101000a900473ffffffffffffffffffffffffffffffffffffffff1673ffffffffffffffffffffffffffffffffffffffff1663a9059cbb83836040518363ffffffff1660e01b81526004016119689291906126ef565b6020604051808303816000875af1158015611987573d6000803e3d6000fd5b505050506040513d601f19601f820116820180604052508101906119ab9190612744565b6119ea576040517f08c379a00000000000000000000000000000000000000000000000000000000081526004016119e190612b5b565b60405180910390fd5b8173ffffffffffffffffffffffffffffffffffffffff167f9d63f79cd978b2e9a8117424fb75c5357d8fda1b3d2a8b4339a8a1b7e441d96482604051611a309190611f48565b60405180910390a25b5050505b5b505b505050565b6000600260009054906101000a900473ffffffffffffffffffffffffffffffffffffffff1673ffffffffffffffffffffffffffffffffffffffff16639b1c385e6040518060c00160405280600b548152602001600a548152602001600c60049054906101000a900461ffff1661ffff168152602001600c60009054906101000a900463ffffffff1663ffffffff168152602001600c60069054906101000a900463ffffffff1663ffffffff168152602001611b10604051806020016040528060001515815250611dbf565b8152506040518263ffffffff1660e01b8152600401611b2f9190612c8a565b6020604051808303816000875af1158015611b4e573d6000803e3d6000fd5b505050506040513d601f19601f82011682018060405250810190611b729190612cc1565b9050816011600083815260200190815260200160002060006101000a81548160ff02191690836001811115611baa57611ba96123a1565b5b02179055505050565b600260035403611bef576040517f3ee5aeb500000000000000000000000000000000000000000000000000000000815260040160405180910390fd5b6002600381905550565b6001600381905550565b60008054906101000a900473ffffffffffffffffffffffffffffffffffffffff1673ffffffffffffffffffffffffffffffffffffffff163373ffffffffffffffffffffffffffffffffffffffff1614611c91576040517f08c379a0000000000000000000000000000000000000000000000000000000008152600401611c8890612d3a565b60405180910390fd5b565b3373ffffffffffffffffffffffffffffffffffffffff168173ffffffffffffffffffffffffffffffffffffffff1603611d01576040517f08c379a0000000000000000000000000000000000000000000000000000000008152600401611cf890612da6565b60405180910390fd5b80600160006101000a81548173ffffffffffffffffffffffffffffffffffffffff021916908373ffffffffffffffffffffffffffffffffffffffff1602179055508073ffffffffffffffffffffffffffffffffffffffff1660008054906101000a900473ffffffffffffffffffffffffffffffffffffffff1673ffffffffffffffffffffffffffffffffffffffff167fed8889f560326eb138920d842192f0eb3dd22b4f139c87a2c57538e05bae127860405160405180910390a350565b60607f92fd13387c7fe7befbc38d303d6468778fb9731bc4583f17d92989c6fcfdeaaa82604051602401611df39190612df1565b604051602081830303815290604052907bffffffffffffffffffffffffffffffffffffffffffffffffffffffff19166020820180517bffffffffffffffffffffffffffffffffffffffffffffffffffffffff83818316178352505050509050919050565b5080546000825590600052602060002090810190611e759190611e78565b50565b5b80821115611e91576000816000905550600101611e79565b5090565b600073ffffffffffffffffffffffffffffffffffffffff82169050919050565b6000819050919050565b6000611eda611ed5611ed084611e95565b611eb5565b611e95565b9050919050565b6000611eec82611ebf565b9050919050565b6000611efe82611ee1565b9050919050565b611f0e81611ef3565b82525050565b6000602082019050611f296000830184611f05565b92915050565b6000819050919050565b611f4281611f2f565b82525050565b6000602082019050611f5d6000830184611f39565b92915050565b600080fd5b600080fd5b611f7681611f2f565b8114611f8157600080fd5b50565b600081359050611f9381611f6d565b92915050565b600080fd5b600080fd5b600080fd5b60008083601f840112611fbe57611fbd611f99565b5b8235905067ffffffffffffffff811115611fdb57611fda611f9e565b5b602083019150836020820283011115611ff757611ff6611fa3565b5b9250929050565b60008060006040848603121561201757612016611f63565b5b600061202586828701611f84565b935050602084013567ffffffffffffffff81111561204657612045611f68565b5b61205286828701611fa8565b92509250509250925092565b600063ffffffff82169050919050565b6120778161205e565b82525050565b6000602082019050612092600083018461206e565b92915050565b60008083601f8401126120ae576120ad611f99565b5b8235905067ffffffffffffffff8111156120cb576120ca611f9e565b5b6020830191508360018202830111156120e7576120e6611fa3565b5b9250929050565b6000806020838503121561210557612104611f63565b5b600083013567ffffffffffffffff81111561212357612122611f68565b5b61212f85828601612098565b92509250509250929050565b60006020828403121561215157612150611f63565b5b600061215f84828501611f84565b91505092915050565b600061217382611e95565b9050919050565b61218381612168565b82525050565b600060208201905061219e600083018461217a565b92915050565b6000819050919050565b6121b7816121a4565b82525050565b60006020820190506121d260008301846121ae565b92915050565b60008115159050919050565b6121ed816121d8565b82525050565b600081519050919050565b600082825260208201905092915050565b60005b8381101561222d578082015181840152602081019050612212565b60008484015250505050565b6000601f19601f8301169050919050565b6000612255826121f3565b61225f81856121fe565b935061226f81856020860161220f565b61227881612239565b840191505092915050565b600060408201905061229860008301856121e4565b81810360208301526122aa818461224a565b90509392505050565b6122bc81612168565b81146122c757600080fd5b50565b6000813590506122d9816122b3565b92915050565b6000602082840312156122f5576122f4611f63565b5b6000612303848285016122ca565b91505092915050565b612315816121a4565b811461232057600080fd5b50565b6000813590506123328161230c565b92915050565b60006020828403121561234e5761234d611f63565b5b600061235c84828501612323565b91505092915050565b600061237082611ee1565b9050919050565b61238081612365565b82525050565b600060208201905061239b6000830184612377565b92915050565b7f4e487b7100000000000000000000000000000000000000000000000000000000600052602160045260246000fd5b600281106123e1576123e06123a1565b5b50565b60008190506123f2826123d0565b919050565b6000612402826123e4565b9050919050565b612412816123f7565b82525050565b600060208201905061242d6000830184612409565b92915050565b600061ffff82169050919050565b61244a81612433565b82525050565b60006020820190506124656000830184612441565b92915050565b6000806040838503121561248257612481611f63565b5b600061249085828601611f84565b92505060206124a1858286016122ca565b9150509250929050565b60006040820190506124c0600083018561217a565b6124cd602083018461217a565b9392505050565b7f4e487b7100000000000000000000000000000000000000000000000000000000600052601160045260246000fd5b600061250e82611f2f565b915061251983611f2f565b9250828203905081811115612531576125306124d4565b5b92915050565b600061254282611f2f565b915061254d83611f2f565b9250828201905080821115612565576125646124d4565b5b92915050565b600082825260208201905092915050565b7f546f6f206561726c7920666f7220726566756e64000000000000000000000000600082015250565b60006125b260148361256b565b91506125bd8261257c565b602082019050919050565b600060208201905081810360008301526125e1816125a5565b9050919050565b7f47616d652069732066756c6c2c2063616e6e6f7420726566756e640000000000600082015250565b600061261e601b8361256b565b9150612629826125e8565b602082019050919050565b6000602082019050818103600083015261264d81612611565b9050919050565b7f4e6f20706c617965727320746f20726566756e64000000000000000000000000600082015250565b600061268a60148361256b565b915061269582612654565b602082019050919050565b600060208201905081810360008301526126b98161267d565b9050919050565b7f4e487b7100000000000000000000000000000000000000000000000000000000600052603260045260246000fd5b6000604082019050612704600083018561217a565b6127116020830184611f39565b9392505050565b612721816121d8565b811461272c57600080fd5b50565b60008151905061273e81612718565b92915050565b60006020828403121561275a57612759611f63565b5b60006127688482850161272f565b91505092915050565b7f526566756e64207472616e73666572206661696c656400000000000000000000600082015250565b60006127a760168361256b565b91506127b282612771565b602082019050919050565b600060208201905081810360008301526127d68161279a565b9050919050565b7f4d7573742062652070726f706f736564206f776e657200000000000000000000600082015250565b600061281360168361256b565b915061281e826127dd565b602082019050919050565b6000602082019050818103600083015261284281612806565b9050919050565b600060608201905061285e600083018661217a565b61286b602083018561217a565b612878604083018461217a565b949350505050565b7f47616d652069732066756c6c0000000000000000000000000000000000000000600082015250565b60006128b6600c8361256b565b91506128c182612880565b602082019050919050565b600060208201905081810360008301526128e5816128a9565b9050919050565b6000606082019050612901600083018661217a565b61290e602083018561217a565b61291b6040830184611f39565b949350505050565b7f55534443207472616e73666572206661696c6564000000000000000000000000600082015250565b600061295960148361256b565b915061296482612923565b602082019050919050565b600060208201905081810360008301526129888161294c565b9050919050565b600061299a82611f2f565b91507fffffffffffffffffffffffffffffffffffffffffffffffffffffffffffffffff82036129cc576129cb6124d4565b5b600182019050919050565b7f4e487b7100000000000000000000000000000000000000000000000000000000600052601260045260246000fd5b6000612a1182611f2f565b9150612a1c83611f2f565b925082612a2c57612a2b6129d7565b5b828206905092915050565b7f57696e6e6572207472616e73666572206661696c656400000000000000000000600082015250565b6000612a6d60168361256b565b9150612a7882612a37565b602082019050919050565b60006020820190508181036000830152612a9c81612a60565b9050919050565b7f446576207472616e73666572206661696c656400000000000000000000000000600082015250565b6000612ad960138361256b565b9150612ae482612aa3565b602082019050919050565b60006020820190508181036000830152612b0881612acc565b9050919050565b7f4d656761506f74207472616e73666572206661696c6564000000000000000000600082015250565b6000612b4560178361256b565b9150612b5082612b0f565b602082019050919050565b60006020820190508181036000830152612b7481612b38565b9050919050565b612b84816121a4565b82525050565b612b9381611f2f565b82525050565b612ba281612433565b82525050565b612bb18161205e565b82525050565b600082825260208201905092915050565b6000612bd3826121f3565b612bdd8185612bb7565b9350612bed81856020860161220f565b612bf681612239565b840191505092915050565b600060c083016000830151612c196000860182612b7b565b506020830151612c2c6020860182612b8a565b506040830151612c3f6040860182612b99565b506060830151612c526060860182612ba8565b506080830151612c656080860182612ba8565b5060a083015184820360a0860152612c7d8282612bc8565b9150508091505092915050565b60006020820190508181036000830152612ca48184612c01565b905092915050565b600081519050612cbb81611f6d565b92915050565b600060208284031215612cd757612cd6611f63565b5b6000612ce584828501612cac565b91505092915050565b7f4f6e6c792063616c6c61626c65206279206f776e657200000000000000000000600082015250565b6000612d2460168361256b565b9150612d2f82612cee565b602082019050919050565b60006020820190508181036000830152612d5381612d17565b9050919050565b7f43616e6e6f74207472616e7366657220746f2073656c66000000000000000000600082015250565b6000612d9060178361256b565b9150612d9b82612d5a565b602082019050919050565b60006020820190508181036000830152612dbf81612d83565b9050919050565b612dcf816121d8565b82525050565b602082016000820151612deb6000850182612dc6565b50505050565b6000602082019050612e066000830184612dd5565b9291505056fea2646970667358221220ad00b453b269891cbe0ee6df0da6d20427dd602e0b8956e4d569c4102f9a972464736f6c63430008180033",
  "linkReferences": {},
  "deployedLinkReferences": {}
}