{
  "_format": "hh-sol-artifact-1",
  "contractName": "PotOfGold",
  "sourceName": "contracts/PotOfGold.sol",
  "abi": [
    {
      "inputs": [
        {
          "internalType": "address",
          "name": "_usdcToken",
          "type": "address"
        },
        {
          "internalType": "address",
          "name": "_vrfCoordinator",
          "type": "address"
        },
        {
          "internalType": "uint256",
          "name": "_subscriptionId",
          "type": "uint256"
        },
        {
          "internalType": "bytes32",
          "name": "_keyHash",
          "type": "bytes32"
        }
      ],
      "stateMutability": "nonpayable",
      "type": "constructor"
    },
    {
      "inputs": [
        {
          "internalType": "address",
          "name": "have",
          "type": "address"
        },
        {
          "internalType": "address",
          "name": "want",
          "type": "address"
        }
      ],
      "name": "OnlyCoordinatorCanFulfill",
      "type": "error"
    },
    {
      "inputs": [
        {
          "internalType": "address",
          "name": "have",
          "type": "address"
        },
        {
          "internalType": "address",
          "name": "owner",
          "type": "address"
        },
        {
          "internalType": "address",
          "name": "coordinator",
          "type": "address"
        }
      ],
      "name": "OnlyOwnerOrCoordinator",
      "type": "error"
    },
    {
      "inputs": [],
      "name": "ReentrancyGuardReentrantCall",
      "type": "error"
    },
    {
      "inputs": [],
      "name": "ZeroAddress",
      "type": "error"
    },
    {
      "anonymous": false,
      "inputs": [
        {
          "indexed": false,
          "internalType": "address",
          "name": "vrfCoordinator",
          "type": "address"
        }
      ],
      "name": "CoordinatorSet",
      "type": "event"
    },
    {
      "anonymous": false,
      "inputs": [
        {
          "indexed": true,
          "internalType": "address",
          "name": "player",
          "type": "address"
        }
      ],
      "name": "DailyTicketClaimed",
      "type": "event"
    },
    {
      "anonymous": false,
      "inputs": [
        {
          "indexed": false,
          "internalType": "uint256",
          "name": "amount",
          "type": "uint256"
        }
      ],
      "name": "MegaPotIncreased",
      "type": "event"
    },
    {
      "anonymous": false,
      "inputs": [
        {
          "indexed": true,
          "internalType": "address",
          "name": "winner",
          "type": "address"
        },
        {
          "indexed": false,
          "internalType": "uint256",
          "name": "amountWon",
          "type": "uint256"
        }
      ],
      "name": "MegaPotWinnerSelected",
      "type": "event"
    },
    {
      "anonymous": false,
      "inputs": [
        {
          "indexed": true,
          "internalType": "address",
          "name": "from",
          "type": "address"
        },
        {
          "indexed": true,
          "internalType": "address",
          "name": "to",
          "type": "address"
        }
      ],
      "name": "OwnershipTransferRequested",
      "type": "event"
    },
    {
      "anonymous": false,
      "inputs": [
        {
          "indexed": true,
          "internalType": "address",
          "name": "from",
          "type": "address"
        },
        {
          "indexed": true,
          "internalType": "address",
          "name": "to",
          "type": "address"
        }
      ],
      "name": "OwnershipTransferred",
      "type": "event"
    },
    {
      "anonymous": false,
      "inputs": [
        {
          "indexed": true,
          "internalType": "address",
          "name": "player",
          "type": "address"
        },
        {
          "indexed": false,
          "internalType": "uint256",
          "name": "fee",
          "type": "uint256"
        }
      ],
      "name": "PlayerEntered",
      "type": "event"
    },
    {
      "anonymous": false,
      "inputs": [
        {
          "indexed": true,
          "internalType": "address",
          "name": "player",
          "type": "address"
        },
        {
          "indexed": false,
          "internalType": "uint256",
          "name": "amount",
          "type": "uint256"
        }
      ],
      "name": "RefundIssued",
      "type": "event"
    },
    {
      "anonymous": false,
      "inputs": [
        {
          "indexed": true,
          "internalType": "address",
          "name": "winner",
          "type": "address"
        },
        {
          "indexed": false,
          "internalType": "uint256",
          "name": "amountWon",
          "type": "uint256"
        }
      ],
      "name": "WinnerSelected",
      "type": "event"
    },
    {
      "inputs": [],
      "name": "DISCOUNTED_FEE",
      "outputs": [
        {
          "internalType": "uint256",
          "name": "",
          "type": "uint256"
        }
      ],
      "stateMutability": "view",
      "type": "function"
    },
    {
      "inputs": [],
      "name": "ENTRY_FEE",
      "outputs": [
        {
          "internalType": "uint256",
          "name": "",
          "type": "uint256"
        }
      ],
      "stateMutability": "view",
      "type": "function"
    },
    {
      "inputs": [],
      "name": "MAX_PLAYERS",
      "outputs": [
        {
          "internalType": "uint256",
          "name": "",
          "type": "uint256"
        }
      ],
      "stateMutability": "view",
      "type": "function"
    },
    {
      "inputs": [],
      "name": "acceptOwnership",
      "outputs": [],
      "stateMutability": "nonpayable",
      "type": "function"
    },
    {
      "inputs": [],
      "name": "callbackGasLimit",
      "outputs": [
        {
          "internalType": "uint32",
          "name": "",
          "type": "uint32"
        }
      ],
      "stateMutability": "view",
      "type": "function"
    },
    {
      "inputs": [
        {
          "internalType": "bytes",
          "name": "",
          "type": "bytes"
        }
      ],
      "name": "checkUpkeep",
      "outputs": [
        {
          "internalType": "bool",
          "name": "upkeepNeeded",
          "type": "bool"
        },
        {
          "internalType": "bytes",
          "name": "",
          "type": "bytes"
        }
      ],
      "stateMutability": "view",
      "type": "function"
    },
    {
      "inputs": [],
      "name": "claimDailyTicket",
      "outputs": [],
      "stateMutability": "nonpayable",
      "type": "function"
    },
    {
      "inputs": [
        {
          "internalType": "address",
          "name": "",
          "type": "address"
        }
      ],
      "name": "consecutiveLosses",
      "outputs": [
        {
          "internalType": "uint256",
          "name": "",
          "type": "uint256"
        }
      ],
      "stateMutability": "view",
      "type": "function"
    },
    {
      "inputs": [
        {
          "internalType": "address",
          "name": "",
          "type": "address"
        }
      ],
      "name": "deposits",
      "outputs": [
        {
          "internalType": "uint256",
          "name": "",
          "type": "uint256"
        }
      ],
      "stateMutability": "view",
      "type": "function"
    },
    {
      "inputs": [],
      "name": "enter",
      "outputs": [],
      "stateMutability": "nonpayable",
      "type": "function"
    },
    {
      "inputs": [],
      "name": "keyHash",
      "outputs": [
        {
          "internalType": "bytes32",
          "name": "",
          "type": "bytes32"
        }
      ],
      "stateMutability": "view",
      "type": "function"
    },
    {
      "inputs": [
        {
          "internalType": "address",
          "name": "",
          "type": "address"
        }
      ],
      "name": "lastDailyClaim",
      "outputs": [
        {
          "internalType": "uint256",
          "name": "",
          "type": "uint256"
        }
      ],
      "stateMutability": "view",
      "type": "function"
    },
    {
      "inputs": [],
      "name": "lastGameStart",
      "outputs": [
        {
          "internalType": "uint256",
          "name": "",
          "type": "uint256"
        }
      ],
      "stateMutability": "view",
      "type": "function"
    },
    {
      "inputs": [],
      "name": "lastMegaPotDraw",
      "outputs": [
        {
          "internalType": "uint256",
          "name": "",
          "type": "uint256"
        }
      ],
      "stateMutability": "view",
      "type": "function"
    },
    {
      "inputs": [],
      "name": "megaPotBalance",
      "outputs": [
        {
          "internalType": "uint256",
          "name": "",
          "type": "uint256"
        }
      ],
      "stateMutability": "view",
      "type": "function"
    },
    {
      "inputs": [
        {
          "internalType": "uint256",
          "name": "",
          "type": "uint256"
        }
      ],
      "name": "megaPotEntries",
      "outputs": [
        {
          "internalType": "address",
          "name": "",
          "type": "address"
        }
      ],
      "stateMutability": "view",
      "type": "function"
    },
    {
      "inputs": [],
      "name": "megaPotRound",
      "outputs": [
        {
          "internalType": "uint256",
          "name": "",
          "type": "uint256"
        }
      ],
      "stateMutability": "view",
      "type": "function"
    },
    {
      "inputs": [],
      "name": "numWords",
      "outputs": [
        {
          "internalType": "uint32",
          "name": "",
          "type": "uint32"
        }
      ],
      "stateMutability": "view",
      "type": "function"
    },
    {
      "inputs": [],
      "name": "owner",
      "outputs": [
        {
          "internalType": "address",
          "name": "",
          "type": "address"
        }
      ],
      "stateMutability": "view",
      "type": "function"
    },
    {
      "inputs": [
        {
          "internalType": "bytes",
          "name": "",
          "type": "bytes"
        }
      ],
      "name": "performUpkeep",
      "outputs": [],
      "stateMutability": "nonpayable",
      "type": "function"
    },
    {
      "inputs": [
        {
          "internalType": "uint256",
          "name": "",
          "type": "uint256"
        }
      ],
      "name": "players",
      "outputs": [
        {
          "internalType": "address",
          "name": "",
          "type": "address"
        }
      ],
      "stateMutability": "view",
      "type": "function"
    },
    {
      "inputs": [
        {
          "internalType": "uint256",
          "name": "requestId",
          "type": "uint256"
        },
        {
          "internalType": "uint256[]",
          "name": "randomWords",
          "type": "uint256[]"
        }
      ],
      "name": "rawFulfillRandomWords",
      "outputs": [],
      "stateMutability": "nonpayable",
      "type": "function"
    },
    {
      "inputs": [],
      "name": "refund",
      "outputs": [],
      "stateMutability": "nonpayable",
      "type": "function"
    },
    {
      "inputs": [],
      "name": "requestConfirmations",
      "outputs": [
        {
          "internalType": "uint16",
          "name": "",
          "type": "uint16"
        }
      ],
      "stateMutability": "view",
      "type": "function"
    },
    {
      "inputs": [
        {
          "internalType": "uint256",
          "name": "",
          "type": "uint256"
        }
      ],
      "name": "s_requests",
      "outputs": [
        {
          "internalType": "enum PotOfGold.RequestType",
          "name": "",
          "type": "uint8"
        }
      ],
      "stateMutability": "view",
      "type": "function"
    },
    {
      "inputs": [],
      "name": "s_subscriptionId",
      "outputs": [
        {
          "internalType": "uint256",
          "name": "",
          "type": "uint256"
        }
      ],
      "stateMutability": "view",
      "type": "function"
    },
    {
      "inputs": [],
      "name": "s_vrfCoordinator",
      "outputs": [
        {
          "internalType": "contract IVRFCoordinatorV2Plus",
          "name": "",
          "type": "address"
        }
      ],
      "stateMutability": "view",
      "type": "function"
    },
    {
      "inputs": [
        {
          "internalType": "address",
          "name": "_vrfCoordinator",
          "type": "address"
        }
      ],
      "name": "setCoordinator",
      "outputs": [],
      "stateMutability": "nonpayable",
      "type": "function"
    },
    {
      "inputs": [
        {
          "internalType": "bytes32",
          "name": "_keyHash",
          "type": "bytes32"
        }
      ],
      "name": "setKeyHash",
      "outputs": [],
      "stateMutability": "nonpayable",
      "type": "function"
    },
    {
      "inputs": [
        {
          "internalType": "uint256",
          "name": "_subscriptionId",
          "type": "uint256"
        }
      ],
      "name": "setSubscriptionId",
      "outputs": [],
      "stateMutability": "nonpayable",
      "type": "function"
    },
    {
      "inputs": [
        {
          "internalType": "uint256",
          "name": "",
          "type": "uint256"
        },
        {
          "internalType": "address",
          "name": "",
          "type": "address"
        }
      ],
      "name": "tickets",
      "outputs": [
        {
          "internalType": "uint256",
          "name": "",
          "type": "uint256"
        }
      ],
      "stateMutability": "view",
      "type": "function"
    },
    {
      "inputs": [
        {
          "internalType": "address",
          "name": "to",
          "type": "address"
        }
      ],
      "name": "transferOwnership",
      "outputs": [],
      "stateMutability": "nonpayable",
      "type": "function"
    },
    {
      "inputs": [],
      "name": "usdcToken",
      "outputs": [
        {
          "internalType": "contract IERC20",
          "name": "",
          "type": "address"
        }
      ],
      "stateMutability": "view",
      "type": "function"
    }
  ],
  "bytecode": "0x6080604052620186a0600d60006101000a81548163ffffffff021916908363ffffffff1602179055506003600d60046101000a81548161ffff021916908361ffff1602179055506001600d60066101000a81548163ffffffff021916908363ffffffff1602179055503480156200007557600080fd5b50604051620038923803806200389283398181016040528101906200009b9190620004c2565b82338060008073ffffffffffffffffffffffffffffffffffffffff168273ffffffffffffffffffffffffffffffffffffffff160362000111576040517f08c379a0000000000000000000000000000000000000000000000000000000008152600401620001089062000595565b60405180910390fd5b816000806101000a81548173ffffffffffffffffffffffffffffffffffffffff021916908373ffffffffffffffffffffffffffffffffffffffff160217905550600073ffffffffffffffffffffffffffffffffffffffff168173ffffffffffffffffffffffffffffffffffffffff161462000198576200019781620002b360201b60201c565b5b505050600073ffffffffffffffffffffffffffffffffffffffff168173ffffffffffffffffffffffffffffffffffffffff160362000202576040517fd92e233d00000000000000000000000000000000000000000000000000000000815260040160405180910390fd5b80600260006101000a81548173ffffffffffffffffffffffffffffffffffffffff021916908373ffffffffffffffffffffffffffffffffffffffff16021790555050600160038190555083600460006101000a81548173ffffffffffffffffffffffffffffffffffffffff021916908373ffffffffffffffffffffffffffffffffffffffff16021790555081600b8190555080600c8190555042600a8190555042600f819055505050505062000629565b3373ffffffffffffffffffffffffffffffffffffffff168173ffffffffffffffffffffffffffffffffffffffff160362000324576040517f08c379a00000000000000000000000000000000000000000000000000000000081526004016200031b9062000607565b60405180910390fd5b80600160006101000a81548173ffffffffffffffffffffffffffffffffffffffff021916908373ffffffffffffffffffffffffffffffffffffffff1602179055508073ffffffffffffffffffffffffffffffffffffffff1660008054906101000a900473ffffffffffffffffffffffffffffffffffffffff1673ffffffffffffffffffffffffffffffffffffffff167fed8889f560326eb138920d842192f0eb3dd22b4f139c87a2c57538e05bae127860405160405180910390a350565b600080fd5b600073ffffffffffffffffffffffffffffffffffffffff82169050919050565b60006200041482620003e7565b9050919050565b620004268162000407565b81146200043257600080fd5b50565b60008151905062000446816200041b565b92915050565b6000819050919050565b62000461816200044c565b81146200046d57600080fd5b50565b600081519050620004818162000456565b92915050565b6000819050919050565b6200049c8162000487565b8114620004a857600080fd5b50565b600081519050620004bc8162000491565b92915050565b60008060008060808587031215620004df57620004de620003e2565b5b6000620004ef8782880162000435565b9450506020620005028782880162000435565b9350506040620005158782880162000470565b92505060606200052887828801620004ab565b91505092959194509250565b600082825260208201905092915050565b7f43616e6e6f7420736574206f776e657220746f207a65726f0000000000000000600082015250565b60006200057d60188362000534565b91506200058a8262000545565b602082019050919050565b60006020820190508181036000830152620005b0816200056e565b9050919050565b7f43616e6e6f74207472616e7366657220746f2073656c66000000000000000000600082015250565b6000620005ef60178362000534565b9150620005fc82620005b7565b602082019050919050565b600060208201905081810360008301526200062281620005e0565b9050919050565b61325980620006396000396000f3fe608060405234801561001057600080fd5b50600436106101fb5760003560e01c80638ea981171161011a578063d8b3cb2a116100ad578063eceb6cb71161007c578063eceb6cb71461055b578063f2fde38b14610579578063f6d361cc14610595578063f71d96cb146105b3578063fc7e286d146105e3576101fb565b8063d8b3cb2a146104f9578063e5436f0414610529578063e64b5faa14610533578063e97dcb6214610551576101fb565b8063a168fa89116100e9578063a168fa891461045f578063b0fb162f1461048f578063b99d6e29146104ad578063c1e0d236146104dd576101fb565b80638ea98117146103d9578063923bccbe146103f557806398544710146104255780639eccacf614610441576101fb565b806352af66201161019257806379ba50971161016157806379ba5097146103755780637ccfd7fc1461037f5780638ac000211461039d5780638da5cb5b146103bb576101fb565b806352af6620146102fe578063590e1ae31461031c57806361728f39146103265780636e04ff0d14610344576101fb565b80632ca12254116101ce5780632ca12254146102765780634411b3eb146102945780634585e33b146102b25780634c027116146102ce576101fb565b806311eac855146102005780631b0c34eb1461021e5780631fe543e31461023c57806324f7469714610258575b600080fd5b610208610613565b6040516102159190612253565b60405180910390f35b610226610639565b6040516102339190612287565b60405180910390f35b6102566004803603810190610251919061233d565b61063f565b005b610260610705565b60405161026d91906123bc565b60405180910390f35b61027e61071b565b60405161028b9190612287565b60405180910390f35b61029c610721565b6040516102a99190612287565b60405180910390f35b6102cc60048036038101906102c7919061242d565b610726565b005b6102e860048036038101906102e3919061247a565b61075e565b6040516102f591906124c8565b60405180910390f35b61030661079d565b6040516103139190612287565b60405180910390f35b6103246107a4565b005b61032e610ad0565b60405161033b91906124fc565b60405180910390f35b61035e6004803603810190610359919061242d565b610ad6565b60405161036c9291906125c2565b60405180910390f35b61037d610b07565b005b610387610c9c565b60405161039491906123bc565b60405180910390f35b6103a5610cb2565b6040516103b29190612287565b60405180910390f35b6103c3610cb8565b6040516103d091906124c8565b60405180910390f35b6103f360048036038101906103ee919061261e565b610ce1565b005b61040f600480360381019061040a919061261e565b610ec2565b60405161041c9190612287565b60405180910390f35b61043f600480360381019061043a9190612677565b610eda565b005b610449610eec565b60405161045691906126c5565b60405180910390f35b6104796004803603810190610474919061247a565b610f12565b6040516104869190612757565b60405180910390f35b610497610f32565b6040516104a4919061278f565b60405180910390f35b6104c760048036038101906104c291906127aa565b610f46565b6040516104d49190612287565b60405180910390f35b6104f760048036038101906104f2919061247a565b610f6b565b005b610513600480360381019061050e919061261e565b610f7d565b6040516105209190612287565b60405180910390f35b610531610f95565b005b61053b611189565b6040516105489190612287565b60405180910390f35b61055961118f565b005b6105636115f6565b6040516105709190612287565b60405180910390f35b610593600480360381019061058e919061261e565b6115fc565b005b61059d611610565b6040516105aa9190612287565b60405180910390f35b6105cd60048036038101906105c8919061247a565b611617565b6040516105da91906124c8565b60405180910390f35b6105fd60048036038101906105f8919061261e565b611656565b60405161060a9190612287565b60405180910390f35b600460009054906101000a900473ffffffffffffffffffffffffffffffffffffffff1681565b600f5481565b600260009054906101000a900473ffffffffffffffffffffffffffffffffffffffff1673ffffffffffffffffffffffffffffffffffffffff163373ffffffffffffffffffffffffffffffffffffffff16146106f55733600260009054906101000a900473ffffffffffffffffffffffffffffffffffffffff166040517f1cf993f40000000000000000000000000000000000000000000000000000000081526004016106ec9291906127ea565b60405180910390fd5b61070083838361166e565b505050565b600d60009054906101000a900463ffffffff1681565b60055481565b600681565b62093a80600f54426107389190612842565b11801561074a57506000601080549050115b1561075a576107596001611d84565b5b5050565b6010818154811061076e57600080fd5b906000526020600020016000915054906101000a900473ffffffffffffffffffffffffffffffffffffffff1681565b6207a12081565b6107ac611ef2565b62015180600a546107bd9190612876565b42116107fe576040517f08c379a00000000000000000000000000000000000000000000000000000000081526004016107f590612907565b60405180910390fd5b600660088054905010610846576040517f08c379a000000000000000000000000000000000000000000000000000000000815260040161083d90612973565b60405180910390fd5b60006008805490501161088e576040517f08c379a0000000000000000000000000000000000000000000000000000000008152600401610885906129df565b60405180910390fd5b60005b600880549050811015610ab0576000600882815481106108b4576108b36129ff565b5b9060005260206000200160009054906101000a900473ffffffffffffffffffffffffffffffffffffffff1690506000600960008373ffffffffffffffffffffffffffffffffffffffff1673ffffffffffffffffffffffffffffffffffffffff1681526020019081526020016000205490506000811115610aa1576000600960008473ffffffffffffffffffffffffffffffffffffffff1673ffffffffffffffffffffffffffffffffffffffff16815260200190815260200160002081905550600460009054906101000a900473ffffffffffffffffffffffffffffffffffffffff1673ffffffffffffffffffffffffffffffffffffffff1663a9059cbb83836040518363ffffffff1660e01b81526004016109d0929190612a2e565b6020604051808303816000875af11580156109ef573d6000803e3d6000fd5b505050506040513d601f19601f82011682018060405250810190610a139190612a83565b610a52576040517f08c379a0000000000000000000000000000000000000000000000000000000008152600401610a4990612afc565b60405180910390fd5b8173ffffffffffffffffffffffffffffffffffffffff167fa171b6942063c6f2800ce40a780edce37baa2b618571b11eedd1e69e626e7d7682604051610a989190612287565b60405180910390a25b50508080600101915050610891565b5060086000610abf9190612196565b42600a81905550610ace611f38565b565b600c5481565b6000606062093a80600f5442610aec9190612842565b118015610afe57506000601080549050115b91509250929050565b600160009054906101000a900473ffffffffffffffffffffffffffffffffffffffff1673ffffffffffffffffffffffffffffffffffffffff163373ffffffffffffffffffffffffffffffffffffffff1614610b97576040517f08c379a0000000000000000000000000000000000000000000000000000000008152600401610b8e90612b68565b60405180910390fd5b60008060009054906101000a900473ffffffffffffffffffffffffffffffffffffffff169050336000806101000a81548173ffffffffffffffffffffffffffffffffffffffff021916908373ffffffffffffffffffffffffffffffffffffffff1602179055506000600160006101000a81548173ffffffffffffffffffffffffffffffffffffffff021916908373ffffffffffffffffffffffffffffffffffffffff1602179055503373ffffffffffffffffffffffffffffffffffffffff168173ffffffffffffffffffffffffffffffffffffffff167f8be0079c531659141344cd1fd0a4f28419497f9722a3daafe3b4186f6b6457e060405160405180910390a350565b600d60069054906101000a900463ffffffff1681565b600b5481565b60008060009054906101000a900473ffffffffffffffffffffffffffffffffffffffff16905090565b610ce9610cb8565b73ffffffffffffffffffffffffffffffffffffffff163373ffffffffffffffffffffffffffffffffffffffff1614158015610d725750600260009054906101000a900473ffffffffffffffffffffffffffffffffffffffff1673ffffffffffffffffffffffffffffffffffffffff163373ffffffffffffffffffffffffffffffffffffffff1614155b15610de15733610d80610cb8565b600260009054906101000a900473ffffffffffffffffffffffffffffffffffffffff166040517f061db9c1000000000000000000000000000000000000000000000000000000008152600401610dd893929190612b88565b60405180910390fd5b600073ffffffffffffffffffffffffffffffffffffffff168173ffffffffffffffffffffffffffffffffffffffff1603610e47576040517fd92e233d00000000000000000000000000000000000000000000000000000000815260040160405180910390fd5b80600260006101000a81548173ffffffffffffffffffffffffffffffffffffffff021916908373ffffffffffffffffffffffffffffffffffffffff1602179055507fd1a6a14209a385a964d036e404cb5cfb71f4000cdb03c9366292430787261be681604051610eb791906124c8565b60405180910390a150565b60076020528060005260406000206000915090505481565b610ee2611f42565b80600c8190555050565b600260009054906101000a900473ffffffffffffffffffffffffffffffffffffffff1681565b60126020528060005260406000206000915054906101000a900460ff1681565b600d60049054906101000a900461ffff1681565b6011602052816000526040600020602052806000526040600020600091509150505481565b610f73611f42565b80600b8190555050565b60066020528060005260406000206000915090505481565b610f9d611ef2565b62015180600760003373ffffffffffffffffffffffffffffffffffffffff1673ffffffffffffffffffffffffffffffffffffffff16815260200190815260200160002054610feb9190612876565b42101561102d576040517f08c379a000000000000000000000000000000000000000000000000000000000815260040161102490612c0b565b60405180910390fd5b42600760003373ffffffffffffffffffffffffffffffffffffffff1673ffffffffffffffffffffffffffffffffffffffff1681526020019081526020016000208190555060116000600e54815260200190815260200160002060003373ffffffffffffffffffffffffffffffffffffffff1673ffffffffffffffffffffffffffffffffffffffff16815260200190815260200160002060008154809291906110d490612c2b565b91905055506010339080600181540180825580915050600190039060005260206000200160009091909190916101000a81548173ffffffffffffffffffffffffffffffffffffffff021916908373ffffffffffffffffffffffffffffffffffffffff1602179055503373ffffffffffffffffffffffffffffffffffffffff167ff3e2184e9e50b5a881f0c5acda69cb1ba0389b9f0185b20d2e056a4021415f1f60405160405180910390a2611187611f38565b565b600e5481565b611197611ef2565b6006600880549050106111df576040517f08c379a00000000000000000000000000000000000000000000000000000000081526004016111d690612cbf565b60405180910390fd5b6000620f424090506005600660003373ffffffffffffffffffffffffffffffffffffffff1673ffffffffffffffffffffffffffffffffffffffff1681526020019081526020016000205410611235576207a12090505b6000805b6008805490508110156112d3573373ffffffffffffffffffffffffffffffffffffffff1660088281548110611271576112706129ff565b5b9060005260206000200160009054906101000a900473ffffffffffffffffffffffffffffffffffffffff1673ffffffffffffffffffffffffffffffffffffffff16036112c65781806112c290612c2b565b9250505b8080600101915050611239565b5060028110611317576040517f08c379a000000000000000000000000000000000000000000000000000000000815260040161130e90612d2b565b60405180910390fd5b600460009054906101000a900473ffffffffffffffffffffffffffffffffffffffff1673ffffffffffffffffffffffffffffffffffffffff166323b872dd3330856040518463ffffffff1660e01b815260040161137693929190612d4b565b6020604051808303816000875af1158015611395573d6000803e3d6000fd5b505050506040513d601f19601f820116820180604052508101906113b99190612a83565b6113f8576040517f08c379a00000000000000000000000000000000000000000000000000000000081526004016113ef90612dce565b60405180910390fd5b6008339080600181540180825580915050600190039060005260206000200160009091909190916101000a81548173ffffffffffffffffffffffffffffffffffffffff021916908373ffffffffffffffffffffffffffffffffffffffff16021790555081600960003373ffffffffffffffffffffffffffffffffffffffff1673ffffffffffffffffffffffffffffffffffffffff1681526020019081526020016000208190555060116000600e54815260200190815260200160002060003373ffffffffffffffffffffffffffffffffffffffff1673ffffffffffffffffffffffffffffffffffffffff168152602001908152602001600020600081548092919061150290612c2b565b91905055506010339080600181540180825580915050600190039060005260206000200160009091909190916101000a81548173ffffffffffffffffffffffffffffffffffffffff021916908373ffffffffffffffffffffffffffffffffffffffff1602179055503373ffffffffffffffffffffffffffffffffffffffff167fc16481c9484122696a660b57df0bf6839645c6b620cb1704ac2437de13be9225836040516115b09190612287565b60405180910390a26006600880549050036115d4576115cf6000611d84565b6115ea565b6001600880549050036115e95742600a819055505b5b50506115f4611f38565b565b600a5481565b611604611f42565b61160d81611fd2565b50565b620f424081565b6008818154811061162757600080fd5b906000526020600020016000915054906101000a900473ffffffffffffffffffffffffffffffffffffffff1681565b60096020528060005260406000206000915090505481565b60006012600085815260200190815260200160002060009054906101000a900460ff169050600060018111156116a7576116a66126e0565b5b8160018111156116ba576116b96126e0565b5b03611b4e576006600880549050146116d25750611d7f565b60006006848460008181106116ea576116e96129ff565b5b905060200201356116fb9190612e1d565b9050600060088281548110611713576117126129ff565b5b9060005260206000200160009054906101000a900473ffffffffffffffffffffffffffffffffffffffff1690506000624c4b40905060006207a120905060006207a1209050806005600082825461176a9190612876565b925050819055507fce66e2e2bb72d2a0db8a270b3e3f739b2925a20b2a3c6b14e8ae079a734404b1816040516117a09190612287565b60405180910390a1600460009054906101000a900473ffffffffffffffffffffffffffffffffffffffff1673ffffffffffffffffffffffffffffffffffffffff1663a9059cbb85856040518363ffffffff1660e01b8152600401611805929190612a2e565b6020604051808303816000875af1158015611824573d6000803e3d6000fd5b505050506040513d601f19601f820116820180604052508101906118489190612a83565b611887576040517f08c379a000000000000000000000000000000000000000000000000000000000815260040161187e90612e9a565b60405180910390fd5b600460009054906101000a900473ffffffffffffffffffffffffffffffffffffffff1673ffffffffffffffffffffffffffffffffffffffff1663a9059cbb6118cd610cb8565b846040518363ffffffff1660e01b81526004016118eb929190612a2e565b6020604051808303816000875af115801561190a573d6000803e3d6000fd5b505050506040513d601f19601f8201168201806040525081019061192e9190612a83565b61196d576040517f08c379a000000000000000000000000000000000000000000000000000000000815260040161196490612f06565b60405180910390fd5b60005b6006811015611ae05760006008828154811061198f5761198e6129ff565b5b9060005260206000200160009054906101000a900473ffffffffffffffffffffffffffffffffffffffff1690508573ffffffffffffffffffffffffffffffffffffffff168173ffffffffffffffffffffffffffffffffffffffff1603611a39576000600660008373ffffffffffffffffffffffffffffffffffffffff1673ffffffffffffffffffffffffffffffffffffffff16815260200190815260200160002081905550611a8f565b600660008273ffffffffffffffffffffffffffffffffffffffff1673ffffffffffffffffffffffffffffffffffffffff1681526020019081526020016000206000815480929190611a8990612c2b565b91905055505b600960008273ffffffffffffffffffffffffffffffffffffffff1673ffffffffffffffffffffffffffffffffffffffff16815260200190815260200160002060009055508080600101915050611970565b508373ffffffffffffffffffffffffffffffffffffffff167f75060f9e79552df167b73353fee6237a75bb5ba8ea022f77224e32f152138bcb84604051611b279190612287565b60405180910390a260086000611b3d9190612196565b42600a819055505050505050611d7d565b600180811115611b6157611b606126e0565b5b816001811115611b7457611b736126e0565b5b03611d7c57600060108054905003611b935742600f8190555050611d7f565b600060108054905084846000818110611baf57611bae6129ff565b5b90506020020135611bc09190612e1d565b9050600060108281548110611bd857611bd76129ff565b5b9060005260206000200160009054906101000a900473ffffffffffffffffffffffffffffffffffffffff16905060006005549050600060058190555060106000611c229190612196565b600e6000815480929190611c3590612c2b565b919050555042600f819055506000811115611d7857600460009054906101000a900473ffffffffffffffffffffffffffffffffffffffff1673ffffffffffffffffffffffffffffffffffffffff1663a9059cbb83836040518363ffffffff1660e01b8152600401611ca7929190612a2e565b6020604051808303816000875af1158015611cc6573d6000803e3d6000fd5b505050506040513d601f19601f82011682018060405250810190611cea9190612a83565b611d29576040517f08c379a0000000000000000000000000000000000000000000000000000000008152600401611d2090612f72565b60405180910390fd5b8173ffffffffffffffffffffffffffffffffffffffff167f9d63f79cd978b2e9a8117424fb75c5357d8fda1b3d2a8b4339a8a1b7e441d96482604051611d6f9190612287565b60405180910390a25b5050505b5b505b505050565b6000600260009054906101000a900473ffffffffffffffffffffffffffffffffffffffff1673ffffffffffffffffffffffffffffffffffffffff16639b1c385e6040518060c00160405280600c548152602001600b548152602001600d60049054906101000a900461ffff1661ffff168152602001600d60009054906101000a900463ffffffff1663ffffffff168152602001600d60069054906101000a900463ffffffff1663ffffffff168152602001611e4f6040518060200160405280600015158152506120fe565b8152506040518263ffffffff1660e01b8152600401611e6e91906130a1565b6020604051808303816000875af1158015611e8d573d6000803e3d6000fd5b505050506040513d601f19601f82011682018060405250810190611eb191906130d8565b9050816012600083815260200190815260200160002060006101000a81548160ff02191690836001811115611ee957611ee86126e0565b5b02179055505050565b600260035403611f2e576040517f3ee5aeb500000000000000000000000000000000000000000000000000000000815260040160405180910390fd5b6002600381905550565b6001600381905550565b60008054906101000a900473ffffffffffffffffffffffffffffffffffffffff1673ffffffffffffffffffffffffffffffffffffffff163373ffffffffffffffffffffffffffffffffffffffff1614611fd0576040517f08c379a0000000000000000000000000000000000000000000000000000000008152600401611fc790613151565b60405180910390fd5b565b3373ffffffffffffffffffffffffffffffffffffffff168173ffffffffffffffffffffffffffffffffffffffff1603612040576040517f08c379a0000000000000000000000000000000000000000000000000000000008152600401612037906131bd565b60405180910390fd5b80600160006101000a81548173ffffffffffffffffffffffffffffffffffffffff021916908373ffffffffffffffffffffffffffffffffffffffff1602179055508073ffffffffffffffffffffffffffffffffffffffff1660008054906101000a900473ffffffffffffffffffffffffffffffffffffffff1673ffffffffffffffffffffffffffffffffffffffff167fed8889f560326eb138920d842192f0eb3dd22b4f139c87a2c57538e05bae127860405160405180910390a350565b60607f92fd13387c7fe7befbc38d303d6468778fb9731bc4583f17d92989c6fcfdeaaa826040516024016121329190613208565b604051602081830303815290604052907bffffffffffffffffffffffffffffffffffffffffffffffffffffffff19166020820180517bffffffffffffffffffffffffffffffffffffffffffffffffffffffff83818316178352505050509050919050565b50805460008255906000526020600020908101906121b491906121b7565b50565b5b808211156121d05760008160009055506001016121b8565b5090565b600073ffffffffffffffffffffffffffffffffffffffff82169050919050565b6000819050919050565b600061221961221461220f846121d4565b6121f4565b6121d4565b9050919050565b600061222b826121fe565b9050919050565b600061223d82612220565b9050919050565b61224d81612232565b82525050565b60006020820190506122686000830184612244565b92915050565b6000819050919050565b6122818161226e565b82525050565b600060208201905061229c6000830184612278565b92915050565b600080fd5b600080fd5b6122b58161226e565b81146122c057600080fd5b50565b6000813590506122d2816122ac565b92915050565b600080fd5b600080fd5b600080fd5b60008083601f8401126122fd576122fc6122d8565b5b8235905067ffffffffffffffff81111561231a576123196122dd565b5b602083019150836020820283011115612336576123356122e2565b5b9250929050565b600080600060408486031215612356576123556122a2565b5b6000612364868287016122c3565b935050602084013567ffffffffffffffff811115612385576123846122a7565b5b612391868287016122e7565b92509250509250925092565b600063ffffffff82169050919050565b6123b68161239d565b82525050565b60006020820190506123d160008301846123ad565b92915050565b60008083601f8401126123ed576123ec6122d8565b5b8235905067ffffffffffffffff81111561240a576124096122dd565b5b602083019150836001820283011115612426576124256122e2565b5b9250929050565b60008060208385031215612444576124436122a2565b5b600083013567ffffffffffffffff811115612462576124616122a7565b5b61246e858286016123d7565b92509250509250929050565b6000602082840312156124905761248f6122a2565b5b600061249e848285016122c3565b91505092915050565b60006124b2826121d4565b9050919050565b6124c2816124a7565b82525050565b60006020820190506124dd60008301846124b9565b92915050565b6000819050919050565b6124f6816124e3565b82525050565b600060208201905061251160008301846124ed565b92915050565b60008115159050919050565b61252c81612517565b82525050565b600081519050919050565b600082825260208201905092915050565b60005b8381101561256c578082015181840152602081019050612551565b60008484015250505050565b6000601f19601f8301169050919050565b600061259482612532565b61259e818561253d565b93506125ae81856020860161254e565b6125b781612578565b840191505092915050565b60006040820190506125d76000830185612523565b81810360208301526125e98184612589565b90509392505050565b6125fb816124a7565b811461260657600080fd5b50565b600081359050612618816125f2565b92915050565b600060208284031215612634576126336122a2565b5b600061264284828501612609565b91505092915050565b612654816124e3565b811461265f57600080fd5b50565b6000813590506126718161264b565b92915050565b60006020828403121561268d5761268c6122a2565b5b600061269b84828501612662565b91505092915050565b60006126af82612220565b9050919050565b6126bf816126a4565b82525050565b60006020820190506126da60008301846126b6565b92915050565b7f4e487b7100000000000000000000000000000000000000000000000000000000600052602160045260246000fd5b600281106127205761271f6126e0565b5b50565b60008190506127318261270f565b919050565b600061274182612723565b9050919050565b61275181612736565b82525050565b600060208201905061276c6000830184612748565b92915050565b600061ffff82169050919050565b61278981612772565b82525050565b60006020820190506127a46000830184612780565b92915050565b600080604083850312156127c1576127c06122a2565b5b60006127cf858286016122c3565b92505060206127e085828601612609565b9150509250929050565b60006040820190506127ff60008301856124b9565b61280c60208301846124b9565b9392505050565b7f4e487b7100000000000000000000000000000000000000000000000000000000600052601160045260246000fd5b600061284d8261226e565b91506128588361226e565b92508282039050818111156128705761286f612813565b5b92915050565b60006128818261226e565b915061288c8361226e565b92508282019050808211156128a4576128a3612813565b5b92915050565b600082825260208201905092915050565b7f546f6f206561726c7920666f7220726566756e64000000000000000000000000600082015250565b60006128f16014836128aa565b91506128fc826128bb565b602082019050919050565b60006020820190508181036000830152612920816128e4565b9050919050565b7f47616d652069732066756c6c2c2063616e6e6f7420726566756e640000000000600082015250565b600061295d601b836128aa565b915061296882612927565b602082019050919050565b6000602082019050818103600083015261298c81612950565b9050919050565b7f4e6f20706c617965727320746f20726566756e64000000000000000000000000600082015250565b60006129c96014836128aa565b91506129d482612993565b602082019050919050565b600060208201905081810360008301526129f8816129bc565b9050919050565b7f4e487b7100000000000000000000000000000000000000000000000000000000600052603260045260246000fd5b6000604082019050612a4360008301856124b9565b612a506020830184612278565b9392505050565b612a6081612517565b8114612a6b57600080fd5b50565b600081519050612a7d81612a57565b92915050565b600060208284031215612a9957612a986122a2565b5b6000612aa784828501612a6e565b91505092915050565b7f526566756e64207472616e73666572206661696c656400000000000000000000600082015250565b6000612ae66016836128aa565b9150612af182612ab0565b602082019050919050565b60006020820190508181036000830152612b1581612ad9565b9050919050565b7f4d7573742062652070726f706f736564206f776e657200000000000000000000600082015250565b6000612b526016836128aa565b9150612b5d82612b1c565b602082019050919050565b60006020820190508181036000830152612b8181612b45565b9050919050565b6000606082019050612b9d60008301866124b9565b612baa60208301856124b9565b612bb760408301846124b9565b949350505050565b7f4461696c7920636c61696d206e6f742072656164790000000000000000000000600082015250565b6000612bf56015836128aa565b9150612c0082612bbf565b602082019050919050565b60006020820190508181036000830152612c2481612be8565b9050919050565b6000612c368261226e565b91507fffffffffffffffffffffffffffffffffffffffffffffffffffffffffffffffff8203612c6857612c67612813565b5b600182019050919050565b7f47616d652069732066756c6c0000000000000000000000000000000000000000600082015250565b6000612ca9600c836128aa565b9150612cb482612c73565b602082019050919050565b60006020820190508181036000830152612cd881612c9c565b9050919050565b7f4d6178203220656e74726965732070657220726f756e64000000000000000000600082015250565b6000612d156017836128aa565b9150612d2082612cdf565b602082019050919050565b60006020820190508181036000830152612d4481612d08565b9050919050565b6000606082019050612d6060008301866124b9565b612d6d60208301856124b9565b612d7a6040830184612278565b949350505050565b7f55534443207472616e73666572206661696c6564000000000000000000000000600082015250565b6000612db86014836128aa565b9150612dc382612d82565b602082019050919050565b60006020820190508181036000830152612de781612dab565b9050919050565b7f4e487b7100000000000000000000000000000000000000000000000000000000600052601260045260246000fd5b6000612e288261226e565b9150612e338361226e565b925082612e4357612e42612dee565b5b828206905092915050565b7f57696e6e6572207472616e73666572206661696c656400000000000000000000600082015250565b6000612e846016836128aa565b9150612e8f82612e4e565b602082019050919050565b60006020820190508181036000830152612eb381612e77565b9050919050565b7f446576207472616e73666572206661696c656400000000000000000000000000600082015250565b6000612ef06013836128aa565b9150612efb82612eba565b602082019050919050565b60006020820190508181036000830152612f1f81612ee3565b9050919050565b7f4d656761506f74207472616e73666572206661696c6564000000000000000000600082015250565b6000612f5c6017836128aa565b9150612f6782612f26565b602082019050919050565b60006020820190508181036000830152612f8b81612f4f565b9050919050565b612f9b816124e3565b82525050565b612faa8161226e565b82525050565b612fb981612772565b82525050565b612fc88161239d565b82525050565b600082825260208201905092915050565b6000612fea82612532565b612ff48185612fce565b935061300481856020860161254e565b61300d81612578565b840191505092915050565b600060c0830160008301516130306000860182612f92565b5060208301516130436020860182612fa1565b5060408301516130566040860182612fb0565b5060608301516130696060860182612fbf565b50608083015161307c6080860182612fbf565b5060a083015184820360a08601526130948282612fdf565b9150508091505092915050565b600060208201905081810360008301526130bb8184613018565b905092915050565b6000815190506130d2816122ac565b92915050565b6000602082840312156130ee576130ed6122a2565b5b60006130fc848285016130c3565b91505092915050565b7f4f6e6c792063616c6c61626c65206279206f776e657200000000000000000000600082015250565b600061313b6016836128aa565b915061314682613105565b602082019050919050565b6000602082019050818103600083015261316a8161312e565b9050919050565b7f43616e6e6f74207472616e7366657220746f2073656c66000000000000000000600082015250565b60006131a76017836128aa565b91506131b282613171565b602082019050919050565b600060208201905081810360008301526131d68161319a565b9050919050565b6131e681612517565b82525050565b60208201600082015161320260008501826131dd565b50505050565b600060208201905061321d60008301846131ec565b9291505056fea2646970667358221220631f6c7758890209efeffb7788932cfccf8426a2ac3cc41954bd9c150131e6ce64736f6c63430008180033",
  "linkReferences": {},
  "deployedLinkReferences": {}
}